{"abi":[{"type":"constructor","inputs":[],"stateMutability":"nonpayable"},{"type":"function","name":"getPassword","inputs":[],"outputs":[{"name":"","type":"string","internalType":"string"}],"stateMutability":"view"},{"type":"function","name":"setPassword","inputs":[{"name":"newPassword","type":"string","internalType":"string"}],"outputs":[],"stateMutability":"nonpayable"},{"type":"event","name":"SetNewPassword","inputs":[],"anonymous":false},{"type":"error","name":"PasswordStore__NotOwner","inputs":[]}],"bytecode":{"object":"0x608060405234801561001057600080fd5b50336000806101000a81548173ffffffffffffffffffffffffffffffffffffffff021916908373ffffffffffffffffffffffffffffffffffffffff1602179055506107b2806100606000396000f3fe608060405234801561001057600080fd5b50600436106100365760003560e01c8063290bb4531461003b578063cc8e239414610057575b600080fd5b610055600480360381019061005091906103aa565b610075565b005b61005f610139565b60405161006c9190610472565b60405180910390f35b60008054906101000a900473ffffffffffffffffffffffffffffffffffffffff1673ffffffffffffffffffffffffffffffffffffffff163373ffffffffffffffffffffffffffffffffffffffff16146100fa576040517ff442873000000000000000000000000000000000000000000000000000000000815260040160405180910390fd5b806001908161010991906106aa565b507f2d90f9f3484ad964397201b45d21cb99b91c92f18f4417b4597ee71ebb05576260405160405180910390a150565b606060008054906101000a900473ffffffffffffffffffffffffffffffffffffffff1673ffffffffffffffffffffffffffffffffffffffff163373ffffffffffffffffffffffffffffffffffffffff16146101c0576040517ff442873000000000000000000000000000000000000000000000000000000000815260040160405180910390fd5b600180546101cd906104c3565b80601f01602080910402602001604051908101604052809291908181526020018280546101f9906104c3565b80156102465780601f1061021b57610100808354040283529160200191610246565b820191906000526020600020905b81548152906001019060200180831161022957829003601f168201915b5050505050905090565b6000604051905090565b600080fd5b600080fd5b600080fd5b600080fd5b6000601f19601f8301169050919050565b7f4e487b7100000000000000000000000000000000000000000000000000000000600052604160045260246000fd5b6102b78261026e565b810181811067ffffffffffffffff821117156102d6576102d561027f565b5b80604052505050565b60006102e9610250565b90506102f582826102ae565b919050565b600067ffffffffffffffff8211156103155761031461027f565b5b61031e8261026e565b9050602081019050919050565b82818337600083830152505050565b600061034d610348846102fa565b6102df565b90508281526020810184848401111561036957610368610269565b5b61037484828561032b565b509392505050565b600082601f83011261039157610390610264565b5b81356103a184826020860161033a565b91505092915050565b6000602082840312156103c0576103bf61025a565b5b600082013567ffffffffffffffff8111156103de576103dd61025f565b5b6103ea8482850161037c565b91505092915050565b600081519050919050565b600082825260208201905092915050565b60005b8381101561042d578082015181840152602081019050610412565b60008484015250505050565b6000610444826103f3565b61044e81856103fe565b935061045e81856020860161040f565b6104678161026e565b840191505092915050565b6000602082019050818103600083015261048c8184610439565b905092915050565b7f4e487b7100000000000000000000000000000000000000000000000000000000600052602260045260246000fd5b600060028204905060018216806104db57607f821691505b6020821081036104ee576104ed610494565b5b50919050565b60008190508160005260206000209050919050565b60006020601f8301049050919050565b600082821b905092915050565b6000600883026105567fffffffffffffffffffffffffffffffffffffffffffffffffffffffffffffffff82610519565b6105608683610519565b95508019841693508086168417925050509392505050565b6000819050919050565b6000819050919050565b60006105a76105a261059d84610578565b610582565b610578565b9050919050565b6000819050919050565b6105c18361058c565b6105d56105cd826105ae565b848454610526565b825550505050565b600090565b6105ea6105dd565b6105f58184846105b8565b505050565b5b818110156106195761060e6000826105e2565b6001810190506105fb565b5050565b601f82111561065e5761062f816104f4565b61063884610509565b81016020851015610647578190505b61065b61065385610509565b8301826105fa565b50505b505050565b600082821c905092915050565b600061068160001984600802610663565b1980831691505092915050565b600061069a8383610670565b9150826002028217905092915050565b6106b3826103f3565b67ffffffffffffffff8111156106cc576106cb61027f565b5b6106d682546104c3565b6106e182828561061d565b600060209050601f8311600181146107145760008415610702578287015190505b61070c858261068e565b865550610774565b601f198416610722866104f4565b60005b8281101561074a57848901518255600182019150602085019450602081019050610725565b868310156107675784890151610763601f891682610670565b8355505b6001600288020188555050505b50505050505056fea264697066735822122027c18a698fdac95cd1654f7a9a6c66bca2773b0d883fd9096bcdf3dd07e70d6464736f6c63430008120033","linkReferences":{}},"methodIdentifiers":{"getPassword()":"cc8e2394","setPassword(string)":"290bb453"},"id":16}